:020000040800F2
:10000000280400209D010008130900080B090008BE
:100010000F090008CD070008A91000080000000023
:100020000000000000000000000000009D0A000821
:10003000D107000800000000B3010008B501000866
:10004000B7010008B7010008B7010008B7010008B0
:10005000B7010008B7010008B7010008B7010008A0
:10006000B7010008B7010008B7010008B701000890
:10007000B7010008B7010008B7010008B701000880
:10008000B7010008B7010008B7010008B701000870
:10009000B7010008B7010008B7010008B701000860
:1000A000B7010008B7010008B7010008B701000850
:1000B000B7010008B7010008B7010008B701000840
:1000C000B7010008B7010008B7010008B701000830
:1000D000B7010008B7010008B7010008B701000820
:1000E000B7010008B7010008B7010008B701000810
:1000F000B7010008B7010008B7010008B701000800
:10010000B7010008B7010008B7010008B7010008EF
:10011000B7010008B7010008B7010008B7010008DF
:10012000B7010008B7010008B7010008B7010008CF
:10013000B7010008B7010008B7010008B7010008BF
:10014000B7010008B7010008B7010008B7010008AF
:10015000B7010008B7010008B7010008B70100089F
:10016000B7010008B7010008B7010008B70100088F
:10017000B7010008B7010008B7010008B70100087F
:10018000B7010008B7010008DFF80CD000F04AF80A
:1001900000480047751500082804002006488047DD
:1001A00006480047FEE7FEE7FEE7FEE7FEE7FEE75C
:1001B000FEE7FEE7FEE7FEE7B50B00088901000851
:1001C0002DE9F05F0546002092469B46884606468C
:1001D000814640241BE0284641464746224600F01F
:1001E00042F853465A46C01A914110D31146184658
:1001F000224600F029F82D1A67EB01084F462246E7
:100200000120002100F020F817EB00094E41201ECC
:10021000A4F10104DFDC484631462A464346BDE8E6
:10022000F09F0000064C074D06E0E06840F0010337
:1002300094E8070098471034AC42F6D3FFF7A8FFC4
:10024000D8160008F8160008202A04DB203A00FA25
:1002500002F1002070479140C2F1200320FA03F31D
:10026000194390407047202A04DB203A21FA02F01B
:100270000021704721FA02F3D040C2F120029140E0
:1002800008431946704770B504464FF4FA7094FB62
:10029000F0F0C6B24FF4FA7094FBF0F100FB11409D
:1002A00085B205E04FF4FA7000F093FA701EC6B202
:1002B000002EF7D115B1284600F08BFA70BD01462B
:1002C000C1EBC10202EB42024FF0E0235A6100226F
:1002D0009A611A46126942F001021A6100BF4FF09A
:1002E000E022106900F001021AB100F48032002A05
:1002F000F5D04FF0E022126922F001024FF0E02326
:100300001A6100229A61704710B586B00446012137
:10031000192000F02FFB4FF48060049001208DF82D
:10032000140000208DF8160003208DF81500012020
:100330008DF8170004A9414800F06FFA4FF480616E
:100340003E4800F0E0FA4FF40060049004A93B48F6
:1003500000F063FA4FF40061384800F0D4FA40210D
:10036000374800F0D0FA4020049004A9344800F047
:1003700054FA4FF40041324800F0C5FA4FF40040FF
:10038000049000208DF8140003208DF81500012042
:100390008DF8170004A92A4800F03FFA4FF4806155
:1003A000274800F0B0FA4FF48060049004A9244874
:1003B00000F033FA6FF0040000F0E8FB012108467A
:1003C00000F0D8FA0121102000F0E4FA07220921F8
:1003D0001C4800F06AFA07220A211A4800F065FA60
:1003E0004FF4C060049002208DF814008DF81500C1
:1003F00000208DF8160001208DF8170004A911487F
:1004000000F00BFA00940020ADF80400ADF80600EF
:10041000ADF80800ADF80C000C20ADF80A006946F4
:10042000094800F0D3FD0121074800F0B6FD402146
:10043000054800F0A9FD06B010BD0000000C024008
:1004400000100240000002400010014010B58AB0C8
:1004500004460121102000F08DFA0121084600F029
:1004600099FA01220921564800F01FFA01220B21B6
:10047000534800F01AFA01220D21514800F015FAF4
:1004800001220E214E4800F010FA4FF4D44008909B
:1004900002208DF8240003208DF8250000208DF81F
:1004A000260001208DF8270008A9454800F0B5F97D
:1004B0000121132000F05EFA0820089001208DF839
:1004C000240000208DF8260003208DF8250001204F
:1004D0008DF8270008A93B4800F09FF94FF4007001
:1004E000089008A9384800F098F90320089008A956
:1004F000334800F092F90C20089008A9304800F029
:100500008CF93020089008A92D4800F086F9642C59
:1005100000DD64244FF4D27090FBF4F0401E80B2F2
:10052000ADF814000020ADF81600C720069000209A
:10053000ADF81C0005A9254800F0E4FC6020ADF8EA
:1005400000000120ADF8020000200290ADF80C0080
:1005500069461E4800F084FB08211C4800F0BEFBE1
:1005600069461A4800F0C4FB0821184800F012FC44
:100570006946164800F01CFC0821144800F068FC8D
:100580006946124800F06EFC0821104800F0A6FCF5
:1005900001210E4800F03CFB01210C4800F044FB17
:1005A00001210A4800F04CFB00242146074800F0D6
:1005B000A6FC214606A000F079FD0AB010BD00009F
:1005C0000010024000000240000402400000014010
:1005D0002A4D444B20425547202564200D0A000037
:1005E00070B504460025002C09DD0821134800F0F1
:1005F00088F90421114800F086F9A5B215E0002C15
:100600000ADA04210D4800F07CF908210B4800F0BB
:100610007AF9604285B208E00821084800F071F9D3
:100620000421064800F06DF90025C82D00DDC8251D
:100630002946034800F061FC70BD00000010024034
:100640000000014070B50546002D09DD202113484A
:1006500000F057F91021114800F055F9ACB215E03F
:10066000002D0ADA10210D4800F04BF920210B482B
:1006700000F049F9684284B208E02021074800F000
:1006800040F91021054800F03CF90024C82C00DD99
:10069000C8242146024800F02EFC70BD0010024024
:1006A000000001401CB50121082000F063F9402042
:1006B000009000208DF8040003208DF80500012033
:1006C0008DF807006946244800F0A7F82020009024
:1006D00001208DF8040000208DF8060003208DF81D
:1006E000050001208DF8070069461B4800F095F8C9
:1006F0008020009001208DF8040000208DF8060075
:1007000003208DF8050001208DF807006946124886
:1007100000F083F81020009001208DF804000020E4
:100720008DF8060003208DF8050001208DF80700E4
:100730006946094800F071F80820009000208DF803
:10074000040003208DF8050001208DF8070069469C
:10075000014800F062F81CBD000C024070B5044670
:100760008021174800F0CDF80120FFF7A8FD0025F3
:100770000AE01449485D00F0CDF8134948551020AF
:10078000FFF79DFD681CC5B2092DF2DB80210C48E6
:1007900000F0B9F80C48407820700B48C0786070C1
:1007A00009480079A07008484079E07006488079CF
:1007B00020710548C07960710348007AA07170BD4E
:1007C000000C02407C1600081C00002000BFFEE761
:1007D0007047014645F208224A434FF0E0235A6130
:1007E00000229A611A46126942F001021A6100BFA2
:1007F0004FF0E022106900F001021AB100F48032DB
:10080000002AF5D04FF0E022126922F001024FF0E9
:10081000E0231A6100229A617047F0B50A46002170
:100820000023002400BF3DE0012505FA01F315680F
:1008300005EA03049C4234D105684F000326BE40FC
:10084000B543056015794E00B5400668354305602F
:100850001579012D02D01579022D16D185684F002A
:100860000326BE40B543856055794E00B540866885
:1008700035438560456801268E40B543456045682F
:1008800096798E40B6B235434560C5684F00032661
:10089000BE40B543C560D5794E00B540C668354306
:1008A000C560491C1029BFD3F0BDF0B5002300245A
:1008B0004D07ED0E02FA05F3CE1000F1200555F8B4
:1008C00026504E07F70E0F26BE40B543CF1000F15D
:1008D000200646F82750CE1000F1200555F8265086
:1008E00045EA0304CE1000F1200545F82640F0BD8E
:1008F0000246002013690B400BB1012000E00020EC
:100900007047418370470183704700BFFEE700BF17
:10091000FEE7704770B50546012421E01021144818
:10092000FFF7EFFF04EA050020B120211048FFF790
:10093000EAFF03E020210E48FFF7E3FF0520FFF761
:10094000BEFC10210A48FFF7DEFF40210848FFF7F0
:10095000CFFF00B126430520FFF7B1FC6006040E6F
:10096000002CDBDC20210248FFF7CDFF304670BDB4
:10097000000C024029B1064A12680243044B1A6077
:1009800004E0034A12688243014B1A60704700007A
:100990003038024029B1064A12680243044B1A60FB
:1009A00004E0034A12688243014B1A60704700005A
:1009B00044380240F0B50021002200240225002620
:1009C0000223324F3F6807F00C0121B1042905D002
:1009D000082937D105E02E4F076036E02D4F07601C
:1009E00033E02A4F3F1F3F68C7F38056274F3F1F12
:1009F0003F6807F03F036EB1264FB7FBF3F7DFF810
:100A00008CC0ACF1040CDCF800C0CCF3881C07FBF4
:100A10000CF40CE01E4FB7FBF3F7DFF870C0ACF13D
:100A2000040CDCF800C0CCF3881C07FB0CF4174F57
:100A30003F1F3F68C7F301477F1C7D00B4FBF5F7FC
:100A4000076002E0124F076000BF00BF0F4F3F6812
:100A500007F0F0010909104F7A5C0768D74047603A
:100A60000A4F3F6807F4E051890A0B4F7A5C4768E8
:100A7000D7408760054F3F6807F46041490B064F38
:100A80007A5C4768D740C760F0BD00000838024074
:100A90000024F40000127A000700002070470000D4
:100AA0000CB50020019000903448006840F480307C
:100AB0003249086000BF3148006800F400300090FF
:100AC0000198401C0190009818B90198B0F5A04F0A
:100AD000F1D12A48006800F4003010B101200090E4
:100AE00001E0002000900098012846D123484030C2
:100AF000006840F08050214940310860204800687B
:100B000040F440401E4908601C48083000681B49FA
:100B1000083108600846006840F400400860084654
:100B2000006840F4A05008601648091F0860081FBC
:100B3000006840F08070091F086000BF0F4800681F
:100B400000F000700028F9D040F205700E490860EE
:100B50000A480830006820F003000849083108609E
:100B60000846006840F00200086000BF03480830F3
:100B7000006800F00C000828F8D10CBD00380240D5
:100B80000070004008544007003C0240042808D18F
:100B90004FF0E021096941F004014FF0E0221161BA
:100BA00007E04FF0E021096921F004014FF0E02255
:100BB0001161704710B51248006840F001001049FB
:100BC000086000200E49083108600D4800680D4992
:100BD00008400B4908600C48091D0860081F0068A0
:100BE00020F48020091F0860002005490C310860AE
:100BF000FFF756FF4FF000600449086010BD000089
:100C000000380240FFFFF6FE1030002408ED00E03F
:100C100021B1028842F08002028004E002884FF68F
:100C20007F731A400280704721B1028842F00102AE
:100C3000028004E002884FF6FE731A40028070477B
:100C400031B1B0F8442042F40042A0F8442005E05D
:100C5000B0F84420C2F30E02A0F844207047000010
:100C600070B5002400220023058C4FF6FE76354037
:100C70000584028C8388048B4FF68F752C40B51E3B
:100C80002C400D882C43751E2A408D892A434D889F
:100C90002A43104DA84202D00F4DA84213D14FF65F
:100CA000F7752A40CD892A434FF6FB752A408D8877
:100CB0002A434FF6FF652B404FF6FF552B400D8A18
:100CC0002B434D8A2B43838004838D6845630284C4
:100CD00070BD000000000140000401400A460021F0
:100CE000018B4FF6F77319401143018370470000E1
:100CF00070B5002400220023058C4FF6EF763540B6
:100D00000584028C8388048B48F6FF752C404FF6CF
:100D1000FF452C400D884FF6FF7606EA05252C434B
:100D20004FF6DF752A408D8906EA05152A434D885E
:100D300006EA05152A43154DA84202D0144DA842D3
:100D40001DD14FF67F752A40CD894FF6FF7606EA12
:100D500005152A434FF6BF752A408D8806EA05150A
:100D60002A434FF6FF352B404FF2FF752B400D8A7B
:100D700006EA85052B434D8A06EA85052B438380C9
:100D800004838D688563028470BD0000000001400B
:100D9000000401400A460021018B4FF2FF73194005
:100DA0004FF6FF7303EA02231943018370470000E3
:100DB00070B5002400220023058C4FF6FF663540F5
:100DC0000584028C8388848B4FF68F752C404FF6F8
:100DD000FC752C400D882C434FF6FF552A408D8919
:100DE0004FF6FF7606EA05252A434D8806EA0525D3
:100DF0002A43154DA84202D0144DA8421DD14FF2EE
:100E0000FF752A40CD894FF6FF7606EA05252A436D
:100E10004FF6FF352A408D8806EA05252A434EF60F
:100E2000FF752B404DF6FF752B400D8A06EA051520
:100E30002B434D8A06EA05152B43838084838D68F6
:100E4000C563028470BD0000000001400004014041
:100E50000A460021818B4FF6F773194011438183B5
:100E60007047000070B5002200230024058C4EF668
:100E7000FF7635400584038C8488828B48F6FF75A5
:100E80002A404FF6FF452A400D884FF6FF7606EAC6
:100E900005252A434DF6FF752B408D8906EA053559
:100EA0002B434D8806EA05352B430A4DA84202D054
:100EB000094DA84208D14BF6FF752C400D8A4FF61C
:100EC000FF7606EA85152C43848082838D6805644D
:100ED000038470BD00000140000401400A46002167
:100EE000818B4FF2FF7319404FF6FF7303EA022321
:100EF0001943818370474163704781637047016480
:100F00007047000000220288184B98420ED0184B00
:100F100098420BD0B0F1804F08D0164B984205D0C4
:100F2000154B984202D0154B984204D14FF68F735F
:100F30001A404B881A43124B984207D0114B9842E3
:100F400004D04FF6FF431A400B891A4302804B68C6
:100F5000C3620B880385054B984202D0044B98422C
:100F600001D18B7A03860123838270470000014000
:100F7000000401400004004000080040000C004054
:100F8000001000400014004001F40072B2F5007F30
:100F900000D100BFCA430280704721B1828942F468
:100FA0000052828104E082894DF6FF731A408281EB
:100FB000704702460020B1F5007F00D100BF1388C2
:100FC0000B400BB1012000E0002070472DE9FF47E6
:100FD00005460E460024A14600BFA046B08900B1D8
:100FE00000BF2C8A24F44054F08804432C82AC893E
:100FF00041F20C608443B088318908437189084309
:101000000443AC81AC8A24F44074B0890443AC82BC
:101010006846FFF7CFFC2048854202D01F48854232
:1010200002D1DDF80C9001E0DDF80890A88900F409
:10103000004040B109EBC90000EB091031684900DC
:10104000B0FBF1F707E009EBC90000EB09103168CC
:101050008900B0FBF1F76420B7FBF0F00401200930
:10106000642101FB1078A88900F4004040B13220CF
:1010700000EBC800B0FBF1F000F00700044308E00B
:10108000322000EB08106421B0FBF1F000F00F00FB
:1010900004432C81BDE8FF8700100140001401408B
:1010A000C1F308028280704700BFFEE70FB4054B12
:1010B00010B503A9044A029800F018F810BC5DF8B6
:1010C00014FB0000511500081800002002E008C8B9
:1010D000121F08C1002AFAD170477047002001E0B2
:1010E00001C1121F002AFBD1704700002DE9FF4FFC
:1010F0008DB00F460546002606E025280BD0DDE919
:101100000F1290476D1C761C28780028F5D111B07D
:101110003046BDE8F08F0024A246A1460122EC49EA
:1011200000E0044315F8013F203B02FA03F00842B7
:10113000F7D128782A2810D06FF02F022878A0F154
:101140003001092914D80AEB8A0102EB410144F06D
:10115000020400EB010A6D1CF0E701CF5FEA000A10
:1011600003D544F40054CAF1000A44F002046D1C93
:1011700028782E2817D115F8010F44F004042A28E6
:101180000ED06FF02F022878A0F1300109290AD87B
:1011900009EB890102EB410100EB01096D1CF2E74B
:1011A00057F8049B6D1C28786C280FD006DC4C285F
:1011B00017D068280DD06A2814D104E0742810D004
:1011C0007A280FD10DE044F400140AE044F48014AE
:1011D00001E044F440146978814202D104F580149E
:1011E0006D1C6D1C2A786E2A1FD00CDC632A31D04E
:1011F00004DC002A8BD0582A11D1A3E0642A68D0DD
:10120000692A0CD165E0732A2ED004DC6F2A73D0D2
:10121000702A04D19BE0752A6FD0782A6ED01046D0
:10122000DDE90F129047761C50E1C4F3025002280A
:1012300006D0032809D0042801CF09D0066045E173
:1012400001CFF117C0E9006140E101CF06803DE127
:1012500006703BE117F8040B8DF8000000208DF8B4
:101260000100EB46012003E057F804BB4FF0FF30CC
:1012700061074FF0000102D40DE008F1010188463A
:1012800049450FDA8045F8DB1BF808100029F4D136
:1012900008E008F1010188468142FADB1BF80810DA
:1012A0000029F6D1DDE90F23AAEB0800814621468B
:1012B00000F036F9304400EB080604E0DDE90F12D7
:1012C0001BF8010B9047B8F10108F7D221464846B8
:1012D000F7E00A21C4F302534FF0000B0891022BF0
:1012E00004D001CFC117032B09D00AE0FF1D27F05E
:1012F0000707F7E8020108E032E01FE020E000B253
:10130000C117042B01D140B2C117031E71F10003B4
:1013100007DA4FF0000CD0EB0C006CEB01012D2331
:1013200002E0230504D52B238DF82430012303E0AC
:10133000E30701D02023F7E7984658E00A2110E0A0
:1013400010210EE010204FF0000B08900CE010214F
:101350004FF0000B44F004044FF00809089103E03B
:1013600008214FF0000B0891C4F30253022B04D064
:1013700001CF0021032B06D006E0FF1D27F0070751
:10138000F7E8020103E080B2042B00D1C0B24FF0B5
:10139000000823072BD5702A07D0DDF820C08CF079
:1013A000100C5CEA0B0C05D00EE040238DF82430C5
:1013B000012308E050EA010306D030238DF82430E1
:1013C0008DF8252002239846DDF820C08CF0080C0B
:1013D0005CEA0B0C0BD150EA010301D1630706D57F
:1013E00030238DF824304FF00108A9F10109582A63
:1013F00004D038A20B9208AA0A920BE03AA2F9E7AD
:101400005B46089AFEF7DCFE0B9B9B5C0A9A521E19
:101410000A92137050EA0102F2D10A98ADEB000073
:1014200000F1200B600702D524F4803401E04FF076
:101430000109D94502DDA9EB0B0000E0002000EB1B
:101440000B0141440890AAEB010AE00306D4DDE950
:101450000F232146504600F063F806444FF0000980
:1014600008E009A911F80900DDE90F12904709F118
:101470000109761CC145F4DBE0030CD5DDE90F233F
:101480002146504600F04CF8064404E0DDE90F1216
:1014900030209047761C0899481E08900029F5DCFA
:1014A00008E00A980A990078491C0A91DDE90F12B0
:1014B0009047761CBBF10001ABF1010BF1DC21463A
:1014C0005046DDE90F2300F019F806446D1C1BE6B9
:1014D000092801003031323334353637383961620A
:1014E00063646566000000003031323334353637CE
:1014F0003839414243444546000000002DE9F0419F
:10150000044600251E461746880404D405E03946E3
:101510002020B0476D1C641EF9D52846BDE8F08137
:101520002DE9F041044600251E469046C80301D52A
:10153000302700E02027880404D505E041463846DE
:10154000B0476D1C641EF9D52846BDE8F081000047
:1015500070B504460D46E1B20548FFF7A1FD00BF96
:1015600040210348FFF725FD0028F9D0204670BD33
:10157000001001401FB54FF4E130FEF7C5FE32A068
:10158000FFF794FD1420FEF761FFFFF78BF80A20A8
:10159000FEF779FE56E03748FFF7E0F83548407827
:1015A00040F0EF00EF2806D13C20FFF719F83C206F
:1015B000FFF748F830E02F48407840F0BF00BF28E0
:1015C00008D16FF03B00FFF70BF86FF03B00FFF71F
:1015D00039F821E02748407840F0DF00DF2807D1C4
:1015E0006FF03B00FEF7FCFF3C20FFF72BF813E009
:1015F0002048407840F07F007F2807D13C20FEF74C
:10160000EFFF6FF03B00FFF71DF805E00020FEF74D
:10161000E7FF0020FFF716F8164880791549497949
:10162000144A1279134BDB78CDE90032CDE9021070
:1016300010488378427801780F48FFF737FD1E2065
:10164000FEF721FEA7E700002A2A2A582D4354520C
:1016500031303020505332BFD8D6C6345744D6C765
:10166000C4DCD0A1B3B5C0FDB3CC2A2A2A0D0A0D23
:101670000A00000000000020881600080142000057
:1016800000000000000000004D4F44453A2532782C
:101690002042544E313A2532782042544E323A2577
:1016A000327820524A4F595F4C523A2532782052B4
:1016B0004A4F595F55443A253278204C4A4F595F7A
:1016C0004C523A253278204C4A4F595F55443A25BE
:1016D00032780D0A00000000F81600080000002013
:1016E0001C000000CC100008141700081C0000208B
:1016F0000C040000DC1000080000000000000000E6
:1017000000000001020304010203040607080900A7
:0417100000000000D5
:040000050800018965
:00000001FF
