:020000040800F2
:1000000070040020450100081F06000817060008BC
:100010001B060008890400080F0C000800000000FF
:1000200000000000000000000000000011080008AF
:100030008D040008000000001907000825090008C9
:100040005F0100085F0100085F0100085F01000810
:100050005F0100085F0100085F0100085F01000800
:100060005F0100085F0100085F0100085F010008F0
:100070005F0100085F0100085F0100085F010008E0
:100080005F0100085F0100085F0100085F010008D0
:100090005F0100085F0100085F0100085F010008C0
:1000A0005F0100085F0100085F0100085F010008B0
:1000B0005F0100085F0100085F0100085F010008A0
:1000C0005F0100085F0100085F0100085F01000890
:1000D0005F010008890900085F0100085F0100084E
:1000E0005F0100085F0100085F0100085F01000870
:1000F0005F0100085F0100085F0100085F01000860
:100100005F0100085F0100085F0100085F0100084F
:100110005F0100085F0100085F0100085F0100083F
:100120005F0100085F0100085F0100085F0100082F
:10013000DFF80CD000F04AF800480047DD10000856
:10014000700400200648804706480047FEE7FEE7A7
:10015000FEE7FEE7FEE7FEE7FEE7FEE7FEE7FEE777
:1001600029090008310100082DE9F05F054600204B
:1001700092469B4688460646814640241BE0284618
:1001800041464746224600F042F853465A46C01AB6
:10019000914110D311461846224600F029F82D1A35
:1001A00067EB01084F4622460120002100F020F8AD
:1001B00017EB00094E41201EA4F10104DFDC484684
:1001C00031462A464346BDE8F09F0000064C074DE5
:1001D00006E0E06840F0010394E807009847103417
:1001E000AC42F6D3FFF7A8FF84110008A411000861
:1001F000202A04DB203A00FA02F1002070479140E7
:10020000C2F1200320FA03F3194390407047202ADB
:1002100004DB203A21FA02F00021704721FA02F3B0
:10022000D040C2F12002914008431946704710B5F2
:100230006FF0040000F062FB10BD70B504464FF48F
:10024000FA7094FBF0F0C6B24FF4FA7094FBF0F140
:1002500000FB114085B205E04FF4FA7000F017F989
:10026000701EC6B2002EF7D115B1284600F00FF966
:1002700070BD014601EBC1024FF0E0235A6100223C
:100280009A611A46126942F001021A6100BF4FF0EA
:10029000E022106900F001021AB100F48032002A55
:1002A000F5D04FF0E022126922F001024FF0E02376
:1002B0001A6100229A61704701464906084A92690C
:1002C00042F00102064B9A61064A526822F0E0624F
:1002D000044B5A601A4652680A435A60704700003D
:1002E000001002400000014038B505460120009092
:1002F000002403E000202855601CC4B2092CF9DB5F
:100300004FF40051214800F07AF9012000F0C0F9C3
:10031000422000F0BDF9687002242FE00120009017
:1003200023E04FF48051194800F06BF94FF48051ED
:10033000164800F064F91020FFF79BFF4FF480513E
:10034000124800F05EF94FF40041104800F04EF9F9
:1003500020B1285DBDF8001008432855BDF8000005
:100360004FF6FF7101EA40000090BDF80000FF2841
:10037000D7DD1020FFF77DFF601CC4B2092CCDDB58
:100380004FF40051014800F03CF938BD000C014029
:1003900008B50121082000F0C1F9684600F033F9E2
:1003A0004FF40040ADF8000028208DF80300032032
:1003B0008DF802006946094800F08DF84FF4E040DE
:1003C000ADF8000010208DF8030003208DF8020026
:1003D0006946024800F07FF808BD0000000C0140AB
:1003E00010B586B004460121042000F097F90121E0
:1003F000880300F093F94FF40070ADF81400182052
:100400008DF8170003208DF8160005A91C4800F090
:1004100062F84FF48060ADF8140004208DF81700E6
:1004200005A9174800F057F801940020ADF808001E
:10043000ADF80A00ADF80C00ADF810000C20ADF8D6
:100440000E0001A90F4800F06DFB25208DF800007B
:1004500002208DF8010001208DF802008DF80300C4
:10046000684600F0DDF8012240F22551054800F011
:1004700034FB0121034800F0EDFA06B010BD000086
:10048000000801400038014000BFFEE77047014608
:1004900042F228324A434FF0E0235A6100229A6127
:1004A0001A46126942F001021A6100BF4FF0E022C1
:1004B000106900F001021AB100F48032002AF5D070
:1004C0004FF0E022126922F001024FF0E0231A619E
:1004D00000229A6170472DE9F0410246002500266E
:1004E000002000230024002791F803C00CF00F0522
:1004F00091F803C00CF0100CBCF1000F03D091F880
:1005000002C04CEA050591F800C0BCF1000F31D0E3
:10051000146800202BE04FF0010C0CFA00F3B1F846
:1005200000C00CEA03069E4220D183004FF00F0C5E
:100530000CFA03F7BC4305FA03FC4CEA040491F8F7
:1005400003C0BCF1280F06D14FF0010C0CFA00FCDF
:10055000C2F814C00AE091F803C0BCF1480F05D1FD
:100560004FF0010C0CFA00FCC2F810C0401C082827
:10057000D1D31460B1F800C0BCF1FF0F34DD546872
:1005800000202EE000F1080C4FF0010808FA0CF3EF
:10059000B1F800C00CEA03069E4221D183004FF05F
:1005A0000F0C0CFA03F7BC4305FA03FC4CEA0404F5
:1005B00091F803C0BCF1280F05D100F1080C08FA2E
:1005C0000CF8C2F8148091F803C0BCF1480F07D1B1
:1005D00000F1080C4FF0010808FA0CF8C2F810807E
:1005E000401C0828CED35460BDE8F08102460020AC
:1005F00093680B400BB1012000E00020704741617F
:100600007047016170474FF6FF71018002218170D0
:100610000421C170704700BFFEE700BFFEE77047CE
:1006200070B5002100230F22C47804B3154C246850
:1006300004F4E064C4F5E064210AC1F10403CA4093
:10064000447804FA03F184781440214309010E4CE4
:100650000678A155047804F01F050124AC40057804
:100660006D11AD0005F1E025C5F8004109E0047801
:1006700004F01F050124AC40044D0678761145F8BE
:10068000264070BD0CED00E000E400E080E100E0F9
:1006900038B50446012000900025009034E0BDF8F4
:1006A0000000204028B14FF480411A48FFF7A9FF0D
:1006B00004E04FF480411748FFF7A1FF4FF4805149
:1006C0001448FFF79EFF1020FFF7D3FD4FF4805131
:1006D0001048FFF794FF1020FFF7CBFD4FF4805137
:1006E0000C48FFF78EFF4FF400410A48FFF77EFFEA
:1006F00018B1BDF800002843C5B2BDF800004FF6A0
:10070000FF7101EA40000090BDF80000FF28C6DD3F
:10071000284638BD000C01407047000029B1064A48
:1007200092690243044B9A6104E0034A926982434E
:10073000014B9A61704700000010024030B5002163
:100740000022002400232D4D6D6805F00C0121B11D
:10075000042905D0082923D105E0294D056022E0B0
:10076000274D05601FE0254D6D6805F47012234D7F
:100770006D6805F48034022505EB92421CB9214DC9
:10078000554305600BE01D4D6D6805F400351DB146
:100790001C4D5543056002E0194D5543056002E0CC
:1007A000174D056000BF00BF144D6D6805F0F001E6
:1007B0000909154D6B5C0568DD4045600F4D6D689E
:1007C00005F4E061090A104D6B5C4568DD40856009
:1007D0000A4D6D6805F46051C90A0B4D6B5C4568A4
:1007E000DD40C560054D6D6805F44041890B074D3E
:1007F0006B5CC568B5FBF3F5056130BD00100240C8
:1008000000127A0000093D000300002013000020C0
:10081000704710B500F002F810BD00000CB50020C4
:10082000019000903348006840F4803031490860FE
:1008300000BF3048006800F4003000900198401C70
:100840000190009818B90198B0F5A06FF1D129482E
:10085000006800F4003010B10120009001E0002099
:1008600000900098012843D12348006840F0100010
:10087000214908600846006820F003000860084627
:10088000006840F0020008601A4840681949486052
:100890000846406848600846406840F48060486008
:1008A0000846406820F47C1048600846406840F4E0
:1008B000E81048600846006840F08070086000BF9B
:1008C0000C48006800F000700028F9D00948406822
:1008D00020F00300074948600846406840F00200E5
:1008E000486000BF0348406800F00C000828F9D1B8
:1008F0000CBD00000010024000200240042808D176
:100900004FF0E021096941F004014FF0E02211614C
:1009100007E04FF0E021096921F004014FF0E022E7
:10092000116170477047000010B51348006840F02F
:1009300001001149086008464068104908400E4906
:100940004860084600680E4908400B4908600846A0
:10095000006820F4802008600846406820F4FE000B
:1009600048604FF41F008860FFF753FF4FF00060AE
:100970000449086010BD0000001002400000FFF8AC
:10098000FFFFF6FE08ED00E010B540F225512C48BF
:1009900000F079F8002851D0294800F02FF9C4B2AE
:1009A00028480078032823DA2648007838B9AA2C8A
:1009B0003ED12548047001202249087038E02148C2
:1009C000007801280BD1552C05D11F484470022016
:1009D0001C4908702CE000201A49087028E01A48C9
:1009E0008470032017490870601E184908701FE0C2
:1009F00015488078401E1349097888420EDD124858
:100A00001049097844540F480078401C0D4908707B
:100A10000E48007820440D49087009E00B48007822
:100A2000844205D101200A49087000200549087058
:100A3000012240F22551024800F04FF810BD00009D
:100A400000380140010000201C00002002000020AE
:100A50000000002021B1828942F40052828104E02A
:100A600082894DF6FF731A4082817047024600204A
:100A7000B1F5007F00D100BF13880B400BB10120FE
:100A800000E00020704770B50246002400230025D6
:100A9000002040F66A16B14200D100BFC1F34215F2
:100AA00001F01F03012606FA03F3012D02D19689F6
:100AB000334006E0022D02D1168A334001E0968AC7
:100AC00033400C12012606FA04F41688344013B1A0
:100AD0000CB1012000E0002070BDF0B503460024F9
:100AE00000260025002040F66A17B94200D100BF59
:100AF0001846C1F3421401F01F06012707FA06F554
:100B0000012C01D10C3004E0022C01D1103000E0A6
:100B100014301AB107682F43076002E00768AF433B
:100B20000760F0BD2DE9F04786B005460E4600246B
:100B3000A24600BFA1460027B08900B100BF2F46E2
:100B40002C8A4CF6FF700440F08804432C82AC8958
:100B50004EF6F3100440B088318908437189084388
:100B60000443AC81AC8A4FF6FF400440B089044393
:100B7000AC8201A8FFF7E2FD1F48874202D1DDF8F1
:100B800010A001E0DDF80CA0A88900F4004040B1FD
:100B90000AEBCA0000EB0A1031684900B0FBF1F81B
:100BA00007E00AEBCA0000EB0A1031688900B0FBCD
:100BB000F1F86420B8FBF0F004012009642101FB86
:100BC0001089A88900F4004040B1322000EBC90030
:100BD000B0FBF1F000F00700044308E0322000EB26
:100BE00009106421B0FBF1F000F00F0004432C81E8
:100BF00006B0BDE8F0870000003801400146888853
:100C0000C0F308007047C1F308028280704700BF3C
:100C1000FEE700000FB4054B10B503A9044A029883
:100C200000F018F810BC5DF814FB0000B9100008C3
:100C30001800002002E008C8121F08C1002AFAD1DB
:100C400070477047002001E001C1121F002AFBD14C
:100C5000704700002DE9FF4F8DB00F460546002676
:100C600006E025280BD0DDE90F1290476D1C761C9D
:100C700028780028F5D111B03046BDE8F08F002467
:100C8000A246A1460122EC4900E0044315F8013FC9
:100C9000203B02FA03F00842F7D128782A2810D026
:100CA0006FF02F022878A0F13001092914D80AEB3F
:100CB0008A0102EB410144F0020400EB010A6D1CC1
:100CC000F0E701CF5FEA000A03D544F40054CAF10B
:100CD000000A44F002046D1C28782E2817D115F85C
:100CE000010F44F004042A280ED06FF02F02287858
:100CF000A0F1300109290AD809EB890102EB410171
:100D000000EB01096D1CF2E757F8049B6D1C287875
:100D10006C280FD006DC4C2817D068280DD06A2824
:100D200014D104E0742810D07A280FD10DE044F4D7
:100D300000140AE044F4801401E044F4401469789B
:100D4000814202D104F580146D1C6D1C2A786E2A34
:100D50001FD00CDC632A31D004DC002A8BD0582A47
:100D600011D1A3E0642A68D0692A0CD165E0732A06
:100D70002ED004DC6F2A73D0702A04D19BE0752A30
:100D80006FD0782A6ED01046DDE90F129047761C9E
:100D900050E1C4F30250022806D0032809D00428E9
:100DA00001CF09D0066045E101CFF117C0E900612C
:100DB00040E101CF06803DE106703BE117F8040BEE
:100DC0008DF8000000208DF80100EB46012003E0C3
:100DD00057F804BB4FF0FF3061074FF0000102D419
:100DE0000DE008F10101884649450FDA8045F8DB3E
:100DF0001BF808100029F4D108E008F10101884629
:100E00008142FADB1BF808100029F6D1DDE90F2337
:100E1000AAEB08008146214600F036F9304400EB89
:100E2000080604E0DDE90F121BF8010B9047B8F14A
:100E30000108F7D221464846F7E00A21C4F30253DD
:100E40004FF0000B0891022B04D001CFC117032BE8
:100E500009D00AE0FF1D27F00707F7E8020108E0C4
:100E600032E01FE020E000B2C117042B01D140B2F4
:100E7000C117031E71F1000307DA4FF0000CD0EB2D
:100E80000C006CEB01012D2302E0230504D52B237C
:100E90008DF82430012303E0E30701D02023F7E796
:100EA000984658E00A2110E010210EE010204FF083
:100EB000000B08900CE010214FF0000B44F00404EC
:100EC0004FF00809089103E008214FF0000B08914A
:100ED000C4F30253022B04D001CF0021032B06D010
:100EE00006E0FF1D27F00707F7E8020103E080B2E4
:100EF000042B00D1C0B24FF0000823072BD5702A75
:100F000007D0DDF820C08CF0100C5CEA0B0C05D08B
:100F10000EE040238DF82430012308E050EA01035D
:100F200006D030238DF824308DF8252002239846F2
:100F3000DDF820C08CF0080C5CEA0B0C0BD150EAF9
:100F4000010301D1630706D530238DF824304FF01B
:100F50000108A9F10109582A04D038A20B9208AA65
:100F60000A920BE03AA2F9E75B46089AFFF7FCF811
:100F70000B9B9B5C0A9A521E0A92137050EA010264
:100F8000F2D10A98ADEB000000F1200B600702D50A
:100F900024F4803401E04FF00109D94502DDA9EBCA
:100FA0000B0000E0002000EB0B0141440890AAEB8D
:100FB000010AE00306D4DDE90F232146504600F084
:100FC00063F806444FF0000908E009A911F8090088
:100FD000DDE90F12904709F10109761CC145F4DBE8
:100FE000E0030CD5DDE90F232146504600F04CF814
:100FF000064404E0DDE90F1230209047761C089982
:10100000481E08900029F5DC08E00A980A99007843
:10101000491C0A91DDE90F129047761CBBF10001D3
:10102000ABF1010BF1DC21465046DDE90F2300F066
:1010300019F806446D1C1BE60928010030313233D3
:101040003435363738396162636465660000000004
:1010500030313233343536373839414243444546EE
:10106000000000002DE9F041044600251E46174609
:10107000880404D405E039462020B0476D1C641E66
:10108000F9D52846BDE8F0812DE9F0410446002558
:101090001E469046C80301D5302700E0202788046B
:1010A00004D505E041463846B0476D1C641EF9D5AD
:1010B0002846BDE8F081000070B504460D46E1B257
:1010C0000548FFF7A0FD00BF40210348FFF7CEFC15
:1010D0000028F9D0204670BD0038014088B00220B9
:1010E000FFF7EAF80120FFF7E7F8FFF7A0F84FF461
:1010F000E130FFF775F914A0FFF78CFD0A20FFF728
:101100009CF8FFF745F90A20FFF797F81AE005A8C1
:10111000FFF7EAF89DF81C009DF81B109DF81A20B7
:101120009DF81930CDE90032CDE902109DF8183054
:101130009DF817209DF8151005A0FFF76BFD0A20FC
:10114000FFF77BF8E3E7000020200D0A0000000015
:101150004D4F44453A2532782020202042544E3AC3
:1011600025327820253278202020204A4F593A25F0
:1011700032782025327820253278202532780D0AE1
:1011800000000000A4110008000000201C00000066
:10119000340C0008C01100081C000020540400009A
:1011A000440C0008000000000000000102030401DC
:1011B00002030406070809020406080000000000F4
:0400000508000131BD
:00000001FF
